{
  "_format": "hh-sol-artifact-1",
  "contractName": "NFTMarketplace",
  "sourceName": "contracts/NFTMarket.sol",
  "abi": [
    {
      "inputs": [],
      "stateMutability": "nonpayable",
      "type": "constructor"
    },
    {
      "anonymous": false,
      "inputs": [
        {
          "indexed": true,
          "internalType": "address",
          "name": "owner",
          "type": "address"
        },
        {
          "indexed": true,
          "internalType": "address",
          "name": "approved",
          "type": "address"
        },
        {
          "indexed": true,
          "internalType": "uint256",
          "name": "tokenId",
          "type": "uint256"
        }
      ],
      "name": "Approval",
      "type": "event"
    },
    {
      "anonymous": false,
      "inputs": [
        {
          "indexed": true,
          "internalType": "address",
          "name": "owner",
          "type": "address"
        },
        {
          "indexed": true,
          "internalType": "address",
          "name": "operator",
          "type": "address"
        },
        {
          "indexed": false,
          "internalType": "bool",
          "name": "approved",
          "type": "bool"
        }
      ],
      "name": "ApprovalForAll",
      "type": "event"
    },
    {
      "anonymous": false,
      "inputs": [
        {
          "indexed": true,
          "internalType": "uint256",
          "name": "tokenId",
          "type": "uint256"
        },
        {
          "indexed": false,
          "internalType": "address",
          "name": "seller",
          "type": "address"
        },
        {
          "indexed": false,
          "internalType": "address",
          "name": "owner",
          "type": "address"
        },
        {
          "indexed": false,
          "internalType": "uint256",
          "name": "price",
          "type": "uint256"
        },
        {
          "indexed": false,
          "internalType": "bool",
          "name": "sold",
          "type": "bool"
        }
      ],
      "name": "MarketItemCreated",
      "type": "event"
    },
    {
      "anonymous": false,
      "inputs": [
        {
          "indexed": true,
          "internalType": "address",
          "name": "from",
          "type": "address"
        },
        {
          "indexed": true,
          "internalType": "address",
          "name": "to",
          "type": "address"
        },
        {
          "indexed": true,
          "internalType": "uint256",
          "name": "tokenId",
          "type": "uint256"
        }
      ],
      "name": "Transfer",
      "type": "event"
    },
    {
      "inputs": [
        {
          "internalType": "address",
          "name": "to",
          "type": "address"
        },
        {
          "internalType": "uint256",
          "name": "tokenId",
          "type": "uint256"
        }
      ],
      "name": "approve",
      "outputs": [],
      "stateMutability": "nonpayable",
      "type": "function"
    },
    {
      "inputs": [
        {
          "internalType": "address",
          "name": "owner",
          "type": "address"
        }
      ],
      "name": "balanceOf",
      "outputs": [
        {
          "internalType": "uint256",
          "name": "",
          "type": "uint256"
        }
      ],
      "stateMutability": "view",
      "type": "function"
    },
    {
      "inputs": [
        {
          "internalType": "uint256",
          "name": "tokenID",
          "type": "uint256"
        }
      ],
      "name": "cancelLisiting",
      "outputs": [],
      "stateMutability": "nonpayable",
      "type": "function"
    },
    {
      "inputs": [
        {
          "internalType": "string",
          "name": "tokenURI",
          "type": "string"
        },
        {
          "internalType": "uint256",
          "name": "price",
          "type": "uint256"
        }
      ],
      "name": "createToken",
      "outputs": [
        {
          "internalType": "uint256",
          "name": "",
          "type": "uint256"
        }
      ],
      "stateMutability": "payable",
      "type": "function"
    },
    {
      "inputs": [],
      "name": "fetchListedNft",
      "outputs": [
        {
          "components": [
            {
              "internalType": "uint256",
              "name": "tokenId",
              "type": "uint256"
            },
            {
              "internalType": "address",
              "name": "seller",
              "type": "address"
            },
            {
              "internalType": "address",
              "name": "owner",
              "type": "address"
            },
            {
              "internalType": "uint256",
              "name": "price",
              "type": "uint256"
            },
            {
              "internalType": "bool",
              "name": "sold",
              "type": "bool"
            }
          ],
          "internalType": "struct NFTMarketplace.MarketItem[]",
          "name": "",
          "type": "tuple[]"
        }
      ],
      "stateMutability": "view",
      "type": "function"
    },
    {
      "inputs": [],
      "name": "fetchMarketItem",
      "outputs": [
        {
          "components": [
            {
              "internalType": "uint256",
              "name": "tokenId",
              "type": "uint256"
            },
            {
              "internalType": "address",
              "name": "seller",
              "type": "address"
            },
            {
              "internalType": "address",
              "name": "owner",
              "type": "address"
            },
            {
              "internalType": "uint256",
              "name": "price",
              "type": "uint256"
            },
            {
              "internalType": "bool",
              "name": "sold",
              "type": "bool"
            }
          ],
          "internalType": "struct NFTMarketplace.MarketItem[]",
          "name": "",
          "type": "tuple[]"
        }
      ],
      "stateMutability": "view",
      "type": "function"
    },
    {
      "inputs": [],
      "name": "fetchMyNft",
      "outputs": [
        {
          "components": [
            {
              "internalType": "uint256",
              "name": "tokenId",
              "type": "uint256"
            },
            {
              "internalType": "address",
              "name": "seller",
              "type": "address"
            },
            {
              "internalType": "address",
              "name": "owner",
              "type": "address"
            },
            {
              "internalType": "uint256",
              "name": "price",
              "type": "uint256"
            },
            {
              "internalType": "bool",
              "name": "sold",
              "type": "bool"
            }
          ],
          "internalType": "struct NFTMarketplace.MarketItem[]",
          "name": "",
          "type": "tuple[]"
        }
      ],
      "stateMutability": "view",
      "type": "function"
    },
    {
      "inputs": [
        {
          "internalType": "uint256",
          "name": "tokenId",
          "type": "uint256"
        }
      ],
      "name": "getApproved",
      "outputs": [
        {
          "internalType": "address",
          "name": "",
          "type": "address"
        }
      ],
      "stateMutability": "view",
      "type": "function"
    },
    {
      "inputs": [],
      "name": "getListingPrice",
      "outputs": [
        {
          "internalType": "uint256",
          "name": "",
          "type": "uint256"
        }
      ],
      "stateMutability": "view",
      "type": "function"
    },
    {
      "inputs": [
        {
          "internalType": "address",
          "name": "owner",
          "type": "address"
        },
        {
          "internalType": "address",
          "name": "operator",
          "type": "address"
        }
      ],
      "name": "isApprovedForAll",
      "outputs": [
        {
          "internalType": "bool",
          "name": "",
          "type": "bool"
        }
      ],
      "stateMutability": "view",
      "type": "function"
    },
    {
      "inputs": [],
      "name": "name",
      "outputs": [
        {
          "internalType": "string",
          "name": "",
          "type": "string"
        }
      ],
      "stateMutability": "view",
      "type": "function"
    },
    {
      "inputs": [
        {
          "internalType": "uint256",
          "name": "tokenId",
          "type": "uint256"
        }
      ],
      "name": "ownerOf",
      "outputs": [
        {
          "internalType": "address",
          "name": "",
          "type": "address"
        }
      ],
      "stateMutability": "view",
      "type": "function"
    },
    {
      "inputs": [
        {
          "internalType": "uint256",
          "name": "tokenID",
          "type": "uint256"
        },
        {
          "internalType": "uint256",
          "name": "price",
          "type": "uint256"
        }
      ],
      "name": "resellToken",
      "outputs": [],
      "stateMutability": "payable",
      "type": "function"
    },
    {
      "inputs": [
        {
          "internalType": "address",
          "name": "from",
          "type": "address"
        },
        {
          "internalType": "address",
          "name": "to",
          "type": "address"
        },
        {
          "internalType": "uint256",
          "name": "tokenId",
          "type": "uint256"
        }
      ],
      "name": "safeTransferFrom",
      "outputs": [],
      "stateMutability": "nonpayable",
      "type": "function"
    },
    {
      "inputs": [
        {
          "internalType": "address",
          "name": "from",
          "type": "address"
        },
        {
          "internalType": "address",
          "name": "to",
          "type": "address"
        },
        {
          "internalType": "uint256",
          "name": "tokenId",
          "type": "uint256"
        },
        {
          "internalType": "bytes",
          "name": "data",
          "type": "bytes"
        }
      ],
      "name": "safeTransferFrom",
      "outputs": [],
      "stateMutability": "nonpayable",
      "type": "function"
    },
    {
      "inputs": [
        {
          "internalType": "uint256",
          "name": "tokenID",
          "type": "uint256"
        }
      ],
      "name": "sale",
      "outputs": [],
      "stateMutability": "payable",
      "type": "function"
    },
    {
      "inputs": [
        {
          "internalType": "address",
          "name": "operator",
          "type": "address"
        },
        {
          "internalType": "bool",
          "name": "approved",
          "type": "bool"
        }
      ],
      "name": "setApprovalForAll",
      "outputs": [],
      "stateMutability": "nonpayable",
      "type": "function"
    },
    {
      "inputs": [
        {
          "internalType": "bytes4",
          "name": "interfaceId",
          "type": "bytes4"
        }
      ],
      "name": "supportsInterface",
      "outputs": [
        {
          "internalType": "bool",
          "name": "",
          "type": "bool"
        }
      ],
      "stateMutability": "view",
      "type": "function"
    },
    {
      "inputs": [],
      "name": "symbol",
      "outputs": [
        {
          "internalType": "string",
          "name": "",
          "type": "string"
        }
      ],
      "stateMutability": "view",
      "type": "function"
    },
    {
      "inputs": [
        {
          "internalType": "uint256",
          "name": "tokenId",
          "type": "uint256"
        }
      ],
      "name": "tokenURI",
      "outputs": [
        {
          "internalType": "string",
          "name": "",
          "type": "string"
        }
      ],
      "stateMutability": "view",
      "type": "function"
    },
    {
      "inputs": [
        {
          "internalType": "address",
          "name": "from",
          "type": "address"
        },
        {
          "internalType": "address",
          "name": "to",
          "type": "address"
        },
        {
          "internalType": "uint256",
          "name": "tokenId",
          "type": "uint256"
        }
      ],
      "name": "transferFrom",
      "outputs": [],
      "stateMutability": "nonpayable",
      "type": "function"
    },
    {
      "inputs": [
        {
          "internalType": "uint256",
          "name": "_lisitngPrice",
          "type": "uint256"
        }
      ],
      "name": "updateLisitngPrice",
      "outputs": [],
      "stateMutability": "payable",
      "type": "function"
    }
  ],
  "bytecode": "0x608060405266038d7ea4c68000600a553480156200001c57600080fd5b506040518060400160405280600881526020017f4e465420536f75710000000000000000000000000000000000000000000000008152506040518060400160405280600381526020017f414e53000000000000000000000000000000000000000000000000000000000081525081600090816200009a919062000370565b508060019081620000ac919062000370565b50505033600960006101000a81548173ffffffffffffffffffffffffffffffffffffffff021916908373ffffffffffffffffffffffffffffffffffffffff16021790555062000457565b600081519050919050565b7f4e487b7100000000000000000000000000000000000000000000000000000000600052604160045260246000fd5b7f4e487b7100000000000000000000000000000000000000000000000000000000600052602260045260246000fd5b600060028204905060018216806200017857607f821691505b6020821081036200018e576200018d62000130565b5b50919050565b60008190508160005260206000209050919050565b60006020601f8301049050919050565b600082821b905092915050565b600060088302620001f87fffffffffffffffffffffffffffffffffffffffffffffffffffffffffffffffff82620001b9565b620002048683620001b9565b95508019841693508086168417925050509392505050565b6000819050919050565b6000819050919050565b6000620002516200024b62000245846200021c565b62000226565b6200021c565b9050919050565b6000819050919050565b6200026d8362000230565b620002856200027c8262000258565b848454620001c6565b825550505050565b600090565b6200029c6200028d565b620002a981848462000262565b505050565b5b81811015620002d157620002c560008262000292565b600181019050620002af565b5050565b601f8211156200032057620002ea8162000194565b620002f584620001a9565b8101602085101562000305578190505b6200031d6200031485620001a9565b830182620002ae565b50505b505050565b600082821c905092915050565b6000620003456000198460080262000325565b1980831691505092915050565b600062000360838362000332565b9150826002028217905092915050565b6200037b82620000f6565b67ffffffffffffffff81111562000397576200039662000101565b5b620003a382546200015f565b620003b0828285620002d5565b600060209050601f831160018114620003e85760008415620003d3578287015190505b620003df858262000352565b8655506200044f565b601f198416620003f88662000194565b60005b828110156200042257848901518255600182019150602085019450602081019050620003fb565b868310156200044257848901516200043e601f89168262000332565b8355505b6001600288020188555050505b505050505050565b6145eb80620004676000396000f3fe6080604052600436106101355760003560e01c806372b3b620116100ab578063a22cb4651161006f578063a22cb46514610420578063b88d4fde14610449578063c87b56dd14610472578063e219fc75146104af578063e985e9c5146104cb578063f11bcf1e1461050857610135565b806372b3b620146103535780638fafd0211461038357806395d89b41146103ae57806396032702146103d95780639f7699eb146103f557610135565b806323b872dd116100fd57806323b872dd1461023357806342842e0e1461025c578063560e56a7146102855780636352211e146102ae57806366f2bc3a146102eb57806370a082311461031657610135565b806301ffc9a71461013a57806306fdde0314610177578063081812fc146101a2578063095ea7b3146101df57806312e8558514610208575b600080fd5b34801561014657600080fd5b50610161600480360381019061015c9190612d31565b610524565b60405161016e9190612d79565b60405180910390f35b34801561018357600080fd5b5061018c610606565b6040516101999190612e24565b60405180910390f35b3480156101ae57600080fd5b506101c960048036038101906101c49190612e7c565b610698565b6040516101d69190612eea565b60405180910390f35b3480156101eb57600080fd5b5061020660048036038101906102019190612f31565b6106de565b005b34801561021457600080fd5b5061021d6107f5565b60405161022a9190612f80565b60405180910390f35b34801561023f57600080fd5b5061025a60048036038101906102559190612f9b565b6107ff565b005b34801561026857600080fd5b50610283600480360381019061027e9190612f9b565b61085f565b005b34801561029157600080fd5b506102ac60048036038101906102a79190612e7c565b61087f565b005b3480156102ba57600080fd5b506102d560048036038101906102d09190612e7c565b610a7f565b6040516102e29190612eea565b60405180910390f35b3480156102f757600080fd5b50610300610b05565b60405161030d9190613132565b60405180910390f35b34801561032257600080fd5b5061033d60048036038101906103389190613154565b610df1565b60405161034a9190612f80565b60405180910390f35b61036d600480360381019061036891906132b6565b610ea8565b60405161037a9190612f80565b60405180910390f35b34801561038f57600080fd5b50610398610eea565b6040516103a59190613132565b60405180910390f35b3480156103ba57600080fd5b506103c3611152565b6040516103d09190612e24565b60405180910390f35b6103f360048036038101906103ee9190612e7c565b6111e4565b005b34801561040157600080fd5b5061040a611422565b6040516104179190613132565b60405180910390f35b34801561042c57600080fd5b506104476004803603810190610442919061333e565b61170e565b005b34801561045557600080fd5b50610470600480360381019061046b919061341f565b611724565b005b34801561047e57600080fd5b5061049960048036038101906104949190612e7c565b611786565b6040516104a69190612e24565b60405180910390f35b6104c960048036038101906104c491906134a2565b611898565b005b3480156104d757600080fd5b506104f260048036038101906104ed91906134e2565b611a8d565b6040516104ff9190612d79565b60405180910390f35b610522600480360381019061051d9190612e7c565b611b21565b005b60007f80ac58cd000000000000000000000000000000000000000000000000000000007bffffffffffffffffffffffffffffffffffffffffffffffffffffffff1916827bffffffffffffffffffffffffffffffffffffffffffffffffffffffff191614806105ef57507f5b5e139f000000000000000000000000000000000000000000000000000000007bffffffffffffffffffffffffffffffffffffffffffffffffffffffff1916827bffffffffffffffffffffffffffffffffffffffffffffffffffffffff1916145b806105ff57506105fe82611bbb565b5b9050919050565b60606000805461061590613551565b80601f016020809104026020016040519081016040528092919081815260200182805461064190613551565b801561068e5780601f106106635761010080835404028352916020019161068e565b820191906000526020600020905b81548152906001019060200180831161067157829003601f168201915b5050505050905090565b60006106a382611c25565b6004600083815260200190815260200160002060009054906101000a900473ffffffffffffffffffffffffffffffffffffffff169050919050565b60006106e982610a7f565b90508073ffffffffffffffffffffffffffffffffffffffff168373ffffffffffffffffffffffffffffffffffffffff1603610759576040517f08c379a0000000000000000000000000000000000000000000000000000000008152600401610750906135f4565b60405180910390fd5b8073ffffffffffffffffffffffffffffffffffffffff16610778611c70565b73ffffffffffffffffffffffffffffffffffffffff1614806107a757506107a6816107a1611c70565b611a8d565b5b6107e6576040517f08c379a00000000000000000000000000000000000000000000000000000000081526004016107dd90613686565b60405180910390fd5b6107f08383611c78565b505050565b6000600a54905090565b61081061080a611c70565b82611d31565b61084f576040517f08c379a000000000000000000000000000000000000000000000000000000000815260040161084690613718565b60405180910390fd5b61085a838383611dc6565b505050565b61087a83838360405180602001604052806000815250611724565b505050565b3373ffffffffffffffffffffffffffffffffffffffff16600b600083815260200190815260200160002060020160009054906101000a900473ffffffffffffffffffffffffffffffffffffffff1673ffffffffffffffffffffffffffffffffffffffff1614610923576040517f08c379a000000000000000000000000000000000000000000000000000000000815260040161091a90613784565b60405180910390fd5b60001515600b600083815260200190815260200160002060040160009054906101000a900460ff1615151461098d576040517f08c379a000000000000000000000000000000000000000000000000000000000815260040161098490613816565b60405180910390fd5b33600b600083815260200190815260200160002060020160006101000a81548173ffffffffffffffffffffffffffffffffffffffff021916908373ffffffffffffffffffffffffffffffffffffffff1602179055506000600b600083815260200190815260200160002060010160006101000a81548173ffffffffffffffffffffffffffffffffffffffff021916908373ffffffffffffffffffffffffffffffffffffffff1602179055506001600b600083815260200190815260200160002060040160006101000a81548160ff021916908315150217905550610a7160086120bf565b610a7c303383611dc6565b50565b600080610a8b8361211b565b9050600073ffffffffffffffffffffffffffffffffffffffff168173ffffffffffffffffffffffffffffffffffffffff1603610afc576040517f08c379a0000000000000000000000000000000000000000000000000000000008152600401610af390613882565b60405180910390fd5b80915050919050565b60606000610b136007612158565b905060008060005b83811015610bbb573373ffffffffffffffffffffffffffffffffffffffff16600b6000600184610b4b91906138d1565b815260200190815260200160002060010160009054906101000a900473ffffffffffffffffffffffffffffffffffffffff1673ffffffffffffffffffffffffffffffffffffffff1603610ba857600183610ba591906138d1565b92505b8080610bb390613905565b915050610b1b565b5060008267ffffffffffffffff811115610bd857610bd761318b565b5b604051908082528060200260200182016040528015610c1157816020015b610bfe612c68565b815260200190600190039081610bf65790505b50905060005b84811015610de6573373ffffffffffffffffffffffffffffffffffffffff16600b6000600184610c4791906138d1565b815260200190815260200160002060010160009054906101000a900473ffffffffffffffffffffffffffffffffffffffff1673ffffffffffffffffffffffffffffffffffffffff1603610dd3576000600182610ca391906138d1565b90506000600b60008381526020019081526020016000209050806040518060a0016040529081600082015481526020016001820160009054906101000a900473ffffffffffffffffffffffffffffffffffffffff1673ffffffffffffffffffffffffffffffffffffffff1673ffffffffffffffffffffffffffffffffffffffff1681526020016002820160009054906101000a900473ffffffffffffffffffffffffffffffffffffffff1673ffffffffffffffffffffffffffffffffffffffff1673ffffffffffffffffffffffffffffffffffffffff168152602001600382015481526020016004820160009054906101000a900460ff161515151581525050848681518110610db657610db561394d565b5b6020026020010181905250600185610dce91906138d1565b945050505b8080610dde90613905565b915050610c17565b508094505050505090565b60008073ffffffffffffffffffffffffffffffffffffffff168273ffffffffffffffffffffffffffffffffffffffff1603610e61576040517f08c379a0000000000000000000000000000000000000000000000000000000008152600401610e58906139ee565b60405180910390fd5b600360008373ffffffffffffffffffffffffffffffffffffffff1673ffffffffffffffffffffffffffffffffffffffff168152602001908152602001600020549050919050565b6000610eb46007612166565b6000610ec06007612158565b9050610ecc338261217c565b610ed68185612399565b610ee08184612406565b8091505092915050565b60606000610ef86007612158565b90506000610f066008612158565b610f106007612158565b610f1a9190613a0e565b90506000808267ffffffffffffffff811115610f3957610f3861318b565b5b604051908082528060200260200182016040528015610f7257816020015b610f5f612c68565b815260200190600190039081610f575790505b50905060005b84811015611147573073ffffffffffffffffffffffffffffffffffffffff16600b6000600184610fa891906138d1565b815260200190815260200160002060020160009054906101000a900473ffffffffffffffffffffffffffffffffffffffff1673ffffffffffffffffffffffffffffffffffffffff160361113457600060018261100491906138d1565b90506000600b60008381526020019081526020016000209050806040518060a0016040529081600082015481526020016001820160009054906101000a900473ffffffffffffffffffffffffffffffffffffffff1673ffffffffffffffffffffffffffffffffffffffff1673ffffffffffffffffffffffffffffffffffffffff1681526020016002820160009054906101000a900473ffffffffffffffffffffffffffffffffffffffff1673ffffffffffffffffffffffffffffffffffffffff1673ffffffffffffffffffffffffffffffffffffffff168152602001600382015481526020016004820160009054906101000a900460ff1615151515815250508486815181106111175761111661394d565b5b602002602001018190525060018561112f91906138d1565b945050505b808061113f90613905565b915050610f78565b508094505050505090565b60606001805461116190613551565b80601f016020809104026020016040519081016040528092919081815260200182805461118d90613551565b80156111da5780601f106111af576101008083540402835291602001916111da565b820191906000526020600020905b8154815290600101906020018083116111bd57829003601f168201915b5050505050905090565b6000600b60008381526020019081526020016000206003015490506000600b600084815260200190815260200160002060010160009054906101000a900473ffffffffffffffffffffffffffffffffffffffff16905081341461127c576040517f08c379a000000000000000000000000000000000000000000000000000000000815260040161127390613ab4565b60405180910390fd5b33600b600085815260200190815260200160002060020160006101000a81548173ffffffffffffffffffffffffffffffffffffffff021916908373ffffffffffffffffffffffffffffffffffffffff1602179055506001600b600085815260200190815260200160002060040160006101000a81548160ff0219169083151502179055506000600b600085815260200190815260200160002060010160006101000a81548173ffffffffffffffffffffffffffffffffffffffff021916908373ffffffffffffffffffffffffffffffffffffffff1602179055506113606008612166565b61136b303385611dc6565b600960009054906101000a900473ffffffffffffffffffffffffffffffffffffffff1673ffffffffffffffffffffffffffffffffffffffff166108fc600a549081150290604051600060405180830381858888f193505050501580156113d5573d6000803e3d6000fd5b508073ffffffffffffffffffffffffffffffffffffffff166108fc349081150290604051600060405180830381858888f1935050505015801561141c573d6000803e3d6000fd5b50505050565b606060006114306007612158565b905060008060005b838110156114d8573373ffffffffffffffffffffffffffffffffffffffff16600b600060018461146891906138d1565b815260200190815260200160002060020160009054906101000a900473ffffffffffffffffffffffffffffffffffffffff1673ffffffffffffffffffffffffffffffffffffffff16036114c5576001836114c291906138d1565b92505b80806114d090613905565b915050611438565b5060008267ffffffffffffffff8111156114f5576114f461318b565b5b60405190808252806020026020018201604052801561152e57816020015b61151b612c68565b8152602001906001900390816115135790505b50905060005b84811015611703573373ffffffffffffffffffffffffffffffffffffffff16600b600060018461156491906138d1565b815260200190815260200160002060020160009054906101000a900473ffffffffffffffffffffffffffffffffffffffff1673ffffffffffffffffffffffffffffffffffffffff16036116f05760006001826115c091906138d1565b90506000600b60008381526020019081526020016000209050806040518060a0016040529081600082015481526020016001820160009054906101000a900473ffffffffffffffffffffffffffffffffffffffff1673ffffffffffffffffffffffffffffffffffffffff1673ffffffffffffffffffffffffffffffffffffffff1681526020016002820160009054906101000a900473ffffffffffffffffffffffffffffffffffffffff1673ffffffffffffffffffffffffffffffffffffffff1673ffffffffffffffffffffffffffffffffffffffff168152602001600382015481526020016004820160009054906101000a900460ff1615151515815250508486815181106116d3576116d261394d565b5b60200260200101819052506001856116eb91906138d1565b945050505b80806116fb90613905565b915050611534565b508094505050505090565b611720611719611c70565b8383612609565b5050565b61173561172f611c70565b83611d31565b611774576040517f08c379a000000000000000000000000000000000000000000000000000000000815260040161176b90613718565b60405180910390fd5b61178084848484612775565b50505050565b606061179182611c25565b60006006600084815260200190815260200160002080546117b190613551565b80601f01602080910402602001604051908101604052809291908181526020018280546117dd90613551565b801561182a5780601f106117ff5761010080835404028352916020019161182a565b820191906000526020600020905b81548152906001019060200180831161180d57829003601f168201915b50505050509050600061183b6127d1565b90506000815103611850578192505050611893565b60008251111561188557808260405160200161186d929190613b10565b60405160208183030381529060405292505050611893565b61188e846127e8565b925050505b919050565b3373ffffffffffffffffffffffffffffffffffffffff16600b600084815260200190815260200160002060020160009054906101000a900473ffffffffffffffffffffffffffffffffffffffff1673ffffffffffffffffffffffffffffffffffffffff161461193c576040517f08c379a000000000000000000000000000000000000000000000000000000000815260040161193390613ba6565b60405180910390fd5b600a548114611980576040517f08c379a000000000000000000000000000000000000000000000000000000000815260040161197790613c38565b60405180910390fd5b6000600b600084815260200190815260200160002060040160006101000a81548160ff02191690831515021790555080600b60008481526020019081526020016000206003018190555033600b600084815260200190815260200160002060010160006101000a81548173ffffffffffffffffffffffffffffffffffffffff021916908373ffffffffffffffffffffffffffffffffffffffff16021790555030600b600084815260200190815260200160002060020160006101000a81548173ffffffffffffffffffffffffffffffffffffffff021916908373ffffffffffffffffffffffffffffffffffffffff160217905550611a7e60086120bf565b611a89333084611dc6565b5050565b6000600560008473ffffffffffffffffffffffffffffffffffffffff1673ffffffffffffffffffffffffffffffffffffffff16815260200190815260200160002060008373ffffffffffffffffffffffffffffffffffffffff1673ffffffffffffffffffffffffffffffffffffffff16815260200190815260200160002060009054906101000a900460ff16905092915050565b3373ffffffffffffffffffffffffffffffffffffffff16600960009054906101000a900473ffffffffffffffffffffffffffffffffffffffff1673ffffffffffffffffffffffffffffffffffffffff1614611bb1576040517f08c379a0000000000000000000000000000000000000000000000000000000008152600401611ba890613cca565b60405180910390fd5b80600a8190555050565b60007f01ffc9a7000000000000000000000000000000000000000000000000000000007bffffffffffffffffffffffffffffffffffffffffffffffffffffffff1916827bffffffffffffffffffffffffffffffffffffffffffffffffffffffff1916149050919050565b611c2e81612850565b611c6d576040517f08c379a0000000000000000000000000000000000000000000000000000000008152600401611c6490613882565b60405180910390fd5b50565b600033905090565b816004600083815260200190815260200160002060006101000a81548173ffffffffffffffffffffffffffffffffffffffff021916908373ffffffffffffffffffffffffffffffffffffffff160217905550808273ffffffffffffffffffffffffffffffffffffffff16611ceb83610a7f565b73ffffffffffffffffffffffffffffffffffffffff167f8c5be1e5ebec7d5bd14f71427d1e84f3dd0314c0f7b2291e5b200ac8c7c3b92560405160405180910390a45050565b600080611d3d83610a7f565b90508073ffffffffffffffffffffffffffffffffffffffff168473ffffffffffffffffffffffffffffffffffffffff161480611d7f5750611d7e8185611a8d565b5b80611dbd57508373ffffffffffffffffffffffffffffffffffffffff16611da584610698565b73ffffffffffffffffffffffffffffffffffffffff16145b91505092915050565b8273ffffffffffffffffffffffffffffffffffffffff16611de682610a7f565b73ffffffffffffffffffffffffffffffffffffffff1614611e3c576040517f08c379a0000000000000000000000000000000000000000000000000000000008152600401611e3390613d5c565b60405180910390fd5b600073ffffffffffffffffffffffffffffffffffffffff168273ffffffffffffffffffffffffffffffffffffffff1603611eab576040517f08c379a0000000000000000000000000000000000000000000000000000000008152600401611ea290613dee565b60405180910390fd5b611eb88383836001612891565b8273ffffffffffffffffffffffffffffffffffffffff16611ed882610a7f565b73ffffffffffffffffffffffffffffffffffffffff1614611f2e576040517f08c379a0000000000000000000000000000000000000000000000000000000008152600401611f2590613d5c565b60405180910390fd5b6004600082815260200190815260200160002060006101000a81549073ffffffffffffffffffffffffffffffffffffffff02191690556001600360008573ffffffffffffffffffffffffffffffffffffffff1673ffffffffffffffffffffffffffffffffffffffff168152602001908152602001600020600082825403925050819055506001600360008473ffffffffffffffffffffffffffffffffffffffff1673ffffffffffffffffffffffffffffffffffffffff16815260200190815260200160002060008282540192505081905550816002600083815260200190815260200160002060006101000a81548173ffffffffffffffffffffffffffffffffffffffff021916908373ffffffffffffffffffffffffffffffffffffffff160217905550808273ffffffffffffffffffffffffffffffffffffffff168473ffffffffffffffffffffffffffffffffffffffff167fddf252ad1be2c89b69c2b068fc378daa952ba7f163c4a11628f55a4df523b3ef60405160405180910390a46120ba8383836001612897565b505050565b6000816000015490506000811161210b576040517f08c379a000000000000000000000000000000000000000000000000000000000815260040161210290613e5a565b60405180910390fd5b6001810382600001819055505050565b60006002600083815260200190815260200160002060009054906101000a900473ffffffffffffffffffffffffffffffffffffffff169050919050565b600081600001549050919050565b6001816000016000828254019250508190555050565b600073ffffffffffffffffffffffffffffffffffffffff168273ffffffffffffffffffffffffffffffffffffffff16036121eb576040517f08c379a00000000000000000000000000000000000000000000000000000000081526004016121e290613ec6565b60405180910390fd5b6121f481612850565b15612234576040517f08c379a000000000000000000000000000000000000000000000000000000000815260040161222b90613f32565b60405180910390fd5b612242600083836001612891565b61224b81612850565b1561228b576040517f08c379a000000000000000000000000000000000000000000000000000000000815260040161228290613f32565b60405180910390fd5b6001600360008473ffffffffffffffffffffffffffffffffffffffff1673ffffffffffffffffffffffffffffffffffffffff16815260200190815260200160002060008282540192505081905550816002600083815260200190815260200160002060006101000a81548173ffffffffffffffffffffffffffffffffffffffff021916908373ffffffffffffffffffffffffffffffffffffffff160217905550808273ffffffffffffffffffffffffffffffffffffffff16600073ffffffffffffffffffffffffffffffffffffffff167fddf252ad1be2c89b69c2b068fc378daa952ba7f163c4a11628f55a4df523b3ef60405160405180910390a4612395600083836001612897565b5050565b6123a282612850565b6123e1576040517f08c379a00000000000000000000000000000000000000000000000000000000081526004016123d890613fc4565b60405180910390fd5b806006600084815260200190815260200160002090816124019190614190565b505050565b60008111612449576040517f08c379a0000000000000000000000000000000000000000000000000000000008152600401612440906142ae565b60405180910390fd5b600a54341461248d576040517f08c379a000000000000000000000000000000000000000000000000000000000815260040161248490614340565b60405180910390fd5b6040518060a001604052808381526020013373ffffffffffffffffffffffffffffffffffffffff1681526020013073ffffffffffffffffffffffffffffffffffffffff16815260200182815260200160001515815250600b60008481526020019081526020016000206000820151816000015560208201518160010160006101000a81548173ffffffffffffffffffffffffffffffffffffffff021916908373ffffffffffffffffffffffffffffffffffffffff16021790555060408201518160020160006101000a81548173ffffffffffffffffffffffffffffffffffffffff021916908373ffffffffffffffffffffffffffffffffffffffff1602179055506060820151816003015560808201518160040160006101000a81548160ff0219169083151502179055509050506125c6333084611dc6565b817fb640004f1d14576d0c209e240cad0410e0d8c0c33a09375861fbadae2588a98d33308460006040516125fd9493929190614360565b60405180910390a25050565b8173ffffffffffffffffffffffffffffffffffffffff168373ffffffffffffffffffffffffffffffffffffffff1603612677576040517f08c379a000000000000000000000000000000000000000000000000000000000815260040161266e906143f1565b60405180910390fd5b80600560008573ffffffffffffffffffffffffffffffffffffffff1673ffffffffffffffffffffffffffffffffffffffff16815260200190815260200160002060008473ffffffffffffffffffffffffffffffffffffffff1673ffffffffffffffffffffffffffffffffffffffff16815260200190815260200160002060006101000a81548160ff0219169083151502179055508173ffffffffffffffffffffffffffffffffffffffff168373ffffffffffffffffffffffffffffffffffffffff167f17307eab39ab6107e8899845ad3d59bd9653f200f220920489ca2b5937696c31836040516127689190612d79565b60405180910390a3505050565b612780848484611dc6565b61278c8484848461289d565b6127cb576040517f08c379a00000000000000000000000000000000000000000000000000000000081526004016127c290614483565b60405180910390fd5b50505050565b606060405180602001604052806000815250905090565b60606127f382611c25565b60006127fd6127d1565b9050600081511161281d5760405180602001604052806000815250612848565b8061282784612a24565b604051602001612838929190613b10565b6040516020818303038152906040525b915050919050565b60008073ffffffffffffffffffffffffffffffffffffffff166128728361211b565b73ffffffffffffffffffffffffffffffffffffffff1614159050919050565b50505050565b50505050565b60006128be8473ffffffffffffffffffffffffffffffffffffffff16612af2565b15612a17578373ffffffffffffffffffffffffffffffffffffffff1663150b7a026128e7611c70565b8786866040518563ffffffff1660e01b815260040161290994939291906144f8565b6020604051808303816000875af192505050801561294557506040513d601f19601f820116820180604052508101906129429190614559565b60015b6129c7573d8060008114612975576040519150601f19603f3d011682016040523d82523d6000602084013e61297a565b606091505b5060008151036129bf576040517f08c379a00000000000000000000000000000000000000000000000000000000081526004016129b690614483565b60405180910390fd5b805181602001fd5b63150b7a0260e01b7bffffffffffffffffffffffffffffffffffffffffffffffffffffffff1916817bffffffffffffffffffffffffffffffffffffffffffffffffffffffff191614915050612a1c565b600190505b949350505050565b606060006001612a3384612b15565b01905060008167ffffffffffffffff811115612a5257612a5161318b565b5b6040519080825280601f01601f191660200182016040528015612a845781602001600182028036833780820191505090505b509050600082602001820190505b600115612ae7578080600190039150507f3031323334353637383961626364656600000000000000000000000000000000600a86061a8153600a8581612adb57612ada614586565b5b04945060008503612a92575b819350505050919050565b6000808273ffffffffffffffffffffffffffffffffffffffff163b119050919050565b600080600090507a184f03e93ff9f4daa797ed6e38ed64bf6a1f0100000000000000008310612b73577a184f03e93ff9f4daa797ed6e38ed64bf6a1f0100000000000000008381612b6957612b68614586565b5b0492506040810190505b6d04ee2d6d415b85acef81000000008310612bb0576d04ee2d6d415b85acef81000000008381612ba657612ba5614586565b5b0492506020810190505b662386f26fc100008310612bdf57662386f26fc100008381612bd557612bd4614586565b5b0492506010810190505b6305f5e1008310612c08576305f5e1008381612bfe57612bfd614586565b5b0492506008810190505b6127108310612c2d576127108381612c2357612c22614586565b5b0492506004810190505b60648310612c505760648381612c4657612c45614586565b5b0492506002810190505b600a8310612c5f576001810190505b80915050919050565b6040518060a0016040528060008152602001600073ffffffffffffffffffffffffffffffffffffffff168152602001600073ffffffffffffffffffffffffffffffffffffffff168152602001600081526020016000151581525090565b6000604051905090565b600080fd5b600080fd5b60007fffffffff0000000000000000000000000000000000000000000000000000000082169050919050565b612d0e81612cd9565b8114612d1957600080fd5b50565b600081359050612d2b81612d05565b92915050565b600060208284031215612d4757612d46612ccf565b5b6000612d5584828501612d1c565b91505092915050565b60008115159050919050565b612d7381612d5e565b82525050565b6000602082019050612d8e6000830184612d6a565b92915050565b600081519050919050565b600082825260208201905092915050565b60005b83811015612dce578082015181840152602081019050612db3565b60008484015250505050565b6000601f19601f8301169050919050565b6000612df682612d94565b612e008185612d9f565b9350612e10818560208601612db0565b612e1981612dda565b840191505092915050565b60006020820190508181036000830152612e3e8184612deb565b905092915050565b6000819050919050565b612e5981612e46565b8114612e6457600080fd5b50565b600081359050612e7681612e50565b92915050565b600060208284031215612e9257612e91612ccf565b5b6000612ea084828501612e67565b91505092915050565b600073ffffffffffffffffffffffffffffffffffffffff82169050919050565b6000612ed482612ea9565b9050919050565b612ee481612ec9565b82525050565b6000602082019050612eff6000830184612edb565b92915050565b612f0e81612ec9565b8114612f1957600080fd5b50565b600081359050612f2b81612f05565b92915050565b60008060408385031215612f4857612f47612ccf565b5b6000612f5685828601612f1c565b9250506020612f6785828601612e67565b9150509250929050565b612f7a81612e46565b82525050565b6000602082019050612f956000830184612f71565b92915050565b600080600060608486031215612fb457612fb3612ccf565b5b6000612fc286828701612f1c565b9350506020612fd386828701612f1c565b9250506040612fe486828701612e67565b9150509250925092565b600081519050919050565b600082825260208201905092915050565b6000819050602082019050919050565b61302381612e46565b82525050565b61303281612ec9565b82525050565b61304181612d5e565b82525050565b60a08201600082015161305d600085018261301a565b5060208201516130706020850182613029565b5060408201516130836040850182613029565b506060820151613096606085018261301a565b5060808201516130a96080850182613038565b50505050565b60006130bb8383613047565b60a08301905092915050565b6000602082019050919050565b60006130df82612fee565b6130e98185612ff9565b93506130f48361300a565b8060005b8381101561312557815161310c88826130af565b9750613117836130c7565b9250506001810190506130f8565b5085935050505092915050565b6000602082019050818103600083015261314c81846130d4565b905092915050565b60006020828403121561316a57613169612ccf565b5b600061317884828501612f1c565b91505092915050565b600080fd5b600080fd5b7f4e487b7100000000000000000000000000000000000000000000000000000000600052604160045260246000fd5b6131c382612dda565b810181811067ffffffffffffffff821117156131e2576131e161318b565b5b80604052505050565b60006131f5612cc5565b905061320182826131ba565b919050565b600067ffffffffffffffff8211156132215761322061318b565b5b61322a82612dda565b9050602081019050919050565b82818337600083830152505050565b600061325961325484613206565b6131eb565b90508281526020810184848401111561327557613274613186565b5b613280848285613237565b509392505050565b600082601f83011261329d5761329c613181565b5b81356132ad848260208601613246565b91505092915050565b600080604083850312156132cd576132cc612ccf565b5b600083013567ffffffffffffffff8111156132eb576132ea612cd4565b5b6132f785828601613288565b925050602061330885828601612e67565b9150509250929050565b61331b81612d5e565b811461332657600080fd5b50565b60008135905061333881613312565b92915050565b6000806040838503121561335557613354612ccf565b5b600061336385828601612f1c565b925050602061337485828601613329565b9150509250929050565b600067ffffffffffffffff8211156133995761339861318b565b5b6133a282612dda565b9050602081019050919050565b60006133c26133bd8461337e565b6131eb565b9050828152602081018484840111156133de576133dd613186565b5b6133e9848285613237565b509392505050565b600082601f83011261340657613405613181565b5b81356134168482602086016133af565b91505092915050565b6000806000806080858703121561343957613438612ccf565b5b600061344787828801612f1c565b945050602061345887828801612f1c565b935050604061346987828801612e67565b925050606085013567ffffffffffffffff81111561348a57613489612cd4565b5b613496878288016133f1565b91505092959194509250565b600080604083850312156134b9576134b8612ccf565b5b60006134c785828601612e67565b92505060206134d885828601612e67565b9150509250929050565b600080604083850312156134f9576134f8612ccf565b5b600061350785828601612f1c565b925050602061351885828601612f1c565b9150509250929050565b7f4e487b7100000000000000000000000000000000000000000000000000000000600052602260045260246000fd5b6000600282049050600182168061356957607f821691505b60208210810361357c5761357b613522565b5b50919050565b7f4552433732313a20617070726f76616c20746f2063757272656e74206f776e6560008201527f7200000000000000000000000000000000000000000000000000000000000000602082015250565b60006135de602183612d9f565b91506135e982613582565b604082019050919050565b6000602082019050818103600083015261360d816135d1565b9050919050565b7f4552433732313a20617070726f76652063616c6c6572206973206e6f7420746f60008201527f6b656e206f776e6572206f7220617070726f76656420666f7220616c6c000000602082015250565b6000613670603d83612d9f565b915061367b82613614565b604082019050919050565b6000602082019050818103600083015261369f81613663565b9050919050565b7f4552433732313a2063616c6c6572206973206e6f7420746f6b656e206f776e6560008201527f72206f7220617070726f76656400000000000000000000000000000000000000602082015250565b6000613702602d83612d9f565b915061370d826136a6565b604082019050919050565b60006020820190508181036000830152613731816136f5565b9050919050565b7f6f6e6c79206f776e65722063616e20706572666f726d20746869730000000000600082015250565b600061376e601b83612d9f565b915061377982613738565b602082019050919050565b6000602082019050818103600083015261379d81613761565b9050919050565b7f43616e63656c206974656d207768656e206974206e6f7420736f6c766564205960008201527f6574000000000000000000000000000000000000000000000000000000000000602082015250565b6000613800602283612d9f565b915061380b826137a4565b604082019050919050565b6000602082019050818103600083015261382f816137f3565b9050919050565b7f4552433732313a20696e76616c696420746f6b656e2049440000000000000000600082015250565b600061386c601883612d9f565b915061387782613836565b602082019050919050565b6000602082019050818103600083015261389b8161385f565b9050919050565b7f4e487b7100000000000000000000000000000000000000000000000000000000600052601160045260246000fd5b60006138dc82612e46565b91506138e783612e46565b92508282019050808211156138ff576138fe6138a2565b5b92915050565b600061391082612e46565b91507fffffffffffffffffffffffffffffffffffffffffffffffffffffffffffffffff8203613942576139416138a2565b5b600182019050919050565b7f4e487b7100000000000000000000000000000000000000000000000000000000600052603260045260246000fd5b7f4552433732313a2061646472657373207a65726f206973206e6f74206120766160008201527f6c6964206f776e65720000000000000000000000000000000000000000000000602082015250565b60006139d8602983612d9f565b91506139e38261397c565b604082019050919050565b60006020820190508181036000830152613a07816139cb565b9050919050565b6000613a1982612e46565b9150613a2483612e46565b9250828203905081811115613a3c57613a3b6138a2565b5b92915050565b7f706c65617365207375626d6974207468652061736b696e67207072696365207460008201527f6f20636f6d706c65746520746865207075726368617365000000000000000000602082015250565b6000613a9e603783612d9f565b9150613aa982613a42565b604082019050919050565b60006020820190508181036000830152613acd81613a91565b9050919050565b600081905092915050565b6000613aea82612d94565b613af48185613ad4565b9350613b04818560208601612db0565b80840191505092915050565b6000613b1c8285613adf565b9150613b288284613adf565b91508190509392505050565b7f6f6e6c79206974656d206f776e65722063616e20706572666f726d207468697360008201527f20616374696f6e00000000000000000000000000000000000000000000000000602082015250565b6000613b90602783612d9f565b9150613b9b82613b34565b604082019050919050565b60006020820190508181036000830152613bbf81613b83565b9050919050565b7f5072696365204d75737420426520457175616c20546f204c697374696e67205060008201527f7269636500000000000000000000000000000000000000000000000000000000602082015250565b6000613c22602483612d9f565b9150613c2d82613bc6565b604082019050919050565b60006020820190508181036000830152613c5181613c15565b9050919050565b7f6f6e6c79206d61726b6574706c616365206f776e65722063616e20757064617460008201527f6520746865207072696365000000000000000000000000000000000000000000602082015250565b6000613cb4602b83612d9f565b9150613cbf82613c58565b604082019050919050565b60006020820190508181036000830152613ce381613ca7565b9050919050565b7f4552433732313a207472616e736665722066726f6d20696e636f72726563742060008201527f6f776e6572000000000000000000000000000000000000000000000000000000602082015250565b6000613d46602583612d9f565b9150613d5182613cea565b604082019050919050565b60006020820190508181036000830152613d7581613d39565b9050919050565b7f4552433732313a207472616e7366657220746f20746865207a65726f2061646460008201527f7265737300000000000000000000000000000000000000000000000000000000602082015250565b6000613dd8602483612d9f565b9150613de382613d7c565b604082019050919050565b60006020820190508181036000830152613e0781613dcb565b9050919050565b7f436f756e7465723a2064656372656d656e74206f766572666c6f770000000000600082015250565b6000613e44601b83612d9f565b9150613e4f82613e0e565b602082019050919050565b60006020820190508181036000830152613e7381613e37565b9050919050565b7f4552433732313a206d696e7420746f20746865207a65726f2061646472657373600082015250565b6000613eb0602083612d9f565b9150613ebb82613e7a565b602082019050919050565b60006020820190508181036000830152613edf81613ea3565b9050919050565b7f4552433732313a20746f6b656e20616c7265616479206d696e74656400000000600082015250565b6000613f1c601c83612d9f565b9150613f2782613ee6565b602082019050919050565b60006020820190508181036000830152613f4b81613f0f565b9050919050565b7f45524337323155524953746f726167653a2055524920736574206f66206e6f6e60008201527f6578697374656e7420746f6b656e000000000000000000000000000000000000602082015250565b6000613fae602e83612d9f565b9150613fb982613f52565b604082019050919050565b60006020820190508181036000830152613fdd81613fa1565b9050919050565b60008190508160005260206000209050919050565b60006020601f8301049050919050565b600082821b905092915050565b6000600883026140467fffffffffffffffffffffffffffffffffffffffffffffffffffffffffffffffff82614009565b6140508683614009565b95508019841693508086168417925050509392505050565b6000819050919050565b600061408d61408861408384612e46565b614068565b612e46565b9050919050565b6000819050919050565b6140a783614072565b6140bb6140b382614094565b848454614016565b825550505050565b600090565b6140d06140c3565b6140db81848461409e565b505050565b5b818110156140ff576140f46000826140c8565b6001810190506140e1565b5050565b601f8211156141445761411581613fe4565b61411e84613ff9565b8101602085101561412d578190505b61414161413985613ff9565b8301826140e0565b50505b505050565b600082821c905092915050565b600061416760001984600802614149565b1980831691505092915050565b60006141808383614156565b9150826002028217905092915050565b61419982612d94565b67ffffffffffffffff8111156141b2576141b161318b565b5b6141bc8254613551565b6141c7828285614103565b600060209050601f8311600181146141fa57600084156141e8578287015190505b6141f28582614174565b86555061425a565b601f19841661420886613fe4565b60005b828110156142305784890151825560018201915060208501945060208101905061420b565b8683101561424d5784890151614249601f891682614156565b8355505b6001600288020188555050505b505050505050565b7f70726963652073686f756c642062652067726561746572207468616e20300000600082015250565b6000614298601e83612d9f565b91506142a382614262565b602082019050919050565b600060208201905081810360008301526142c78161428b565b9050919050565b7f5072696365204d75737420626520457175616c20746f204c697374696e67205060008201527f7269636500000000000000000000000000000000000000000000000000000000602082015250565b600061432a602483612d9f565b9150614335826142ce565b604082019050919050565b600060208201905081810360008301526143598161431d565b9050919050565b60006080820190506143756000830187612edb565b6143826020830186612edb565b61438f6040830185612f71565b61439c6060830184612d6a565b95945050505050565b7f4552433732313a20617070726f766520746f2063616c6c657200000000000000600082015250565b60006143db601983612d9f565b91506143e6826143a5565b602082019050919050565b6000602082019050818103600083015261440a816143ce565b9050919050565b7f4552433732313a207472616e7366657220746f206e6f6e20455243373231526560008201527f63656976657220696d706c656d656e7465720000000000000000000000000000602082015250565b600061446d603283612d9f565b915061447882614411565b604082019050919050565b6000602082019050818103600083015261449c81614460565b9050919050565b600081519050919050565b600082825260208201905092915050565b60006144ca826144a3565b6144d481856144ae565b93506144e4818560208601612db0565b6144ed81612dda565b840191505092915050565b600060808201905061450d6000830187612edb565b61451a6020830186612edb565b6145276040830185612f71565b818103606083015261453981846144bf565b905095945050505050565b60008151905061455381612d05565b92915050565b60006020828403121561456f5761456e612ccf565b5b600061457d84828501614544565b91505092915050565b7f4e487b7100000000000000000000000000000000000000000000000000000000600052601260045260246000fdfea26469706673582212200ef8e0899ad8ac045c291f223fb7ab9de28f0daa68910b2d1bc37ece820921b764736f6c63430008120033",
  "linkReferences": {},
  "deployedLinkReferences": {}
}